:100000000C9434000C9448000C946E000C94460040
:100010000C9446000C9446000C9446000C94460048
:100020000C9446000C9446000C9446000C94460038
:100030000C9446000C9446000C9446000C94460028
:100040000C9446000C9446000C9446000C94460018
:100050000C9446000C9446000C9446000C94460008
:100060000C9446000C94460011241FBECFEFD8E03C
:10007000DEBFCDBF21E0A0E0B1E001C01D92A43001
:10008000B207E1F70E9495000C94B1000C940000B7
:100090001F921FB61F9211242F938F939F938091CD
:1000A000020190910301880F991F803491050CF093
:1000B0008F7B909303018093020185B92FEF87EA2C
:1000C00091E6215080409040E1F700C000009F91F0
:1000D0008F912F911F901FBE1F9018951F921FB6D2
:1000E0001F9211242F938F939F93809102019091DF
:1000F0000301880F991F803491050CF08F7B81607C
:10010000909303018093020185B92FEF87EA91E66E
:10011000215080409040E1F700C000009F918F91F6
:100120002F911F901FBE1F901895529853988FEFD4
:1001300084B9809169008260809369008091690030
:100140008160809369008091690088608093690074
:10015000809169008460809369007894E89AE99AB4
:06016000FFCFF894FFCF71
:00000001FF
