:100000000C9434000C9440000C943E000C943E0080
:100010000C943E000C943E000C943E000C943E0068
:100020000C943E000C943E000C943E000C943E0058
:100030000C943E000C943E000C943E000C943E0048
:100040000C943E000C943E000C943E000C943E0038
:100050000C943E000C943E000C943E000C943E0028
:100060000C943E000C943E0011241FBECFEFD8E04C
:10007000DEBFCDBF0E9456000C9465000C940000BA
:100080002F932FB72F938F939F93289A2FEF83ED62
:1000900090E3215080409040E1F700C00000289894
:1000A0009F918F912F912FBF2F9118955798209A3C
:1000B000809169008260809369008091690081600D
:0E00C000809369007894E89AFFCFF894FFCF00
:00000001FF
