:100000000C9434000C943E000C943E000C943E0082
:100010000C943E000C943E000C943E000C943E0068
:100020000C943E000C943E000C943E000C943E0058
:100030000C943E000C943E000C943E000C943E0048
:100040000C943E000C943E000C943E000C943E0038
:100050000C943E000C943E000C943E000C943E0028
:100060000C943E000C943E0011241FBECFEFD8E04C
:10007000DEBFCDBF0E9440000C9495000C940000A0
:1000800084B18C6384B961E070E025E030E045B173
:10009000CB01022E01C0880F0A94EAF7942F982B07
:1000A00095B94FEF51EEE4E041505040E040E1F7A8
:1000B00000C0000095B18095892385B94FEF51EEBE
:1000C00084E0415050408040E1F700C000002150E2
:1000D000310921303105D9F62B9A9FEFE1EE24E06A
:1000E0009150E0402040E1F700C000002B984FEF16
:1000F00051EE84E0415050408040E1F700C00000E4
:100100002C9A9FEFE1EE24E09150E0402040E1F78F
:1001100000C000002C984FEF51EE84E04150504059
:0E0120008040E1F700C00000B0CFF894FFCFA0
:00000001FF
