:100000000C9434000C943E000C943E000C943E0082
:100010000C943E000C943E000C943E000C943E0068
:100020000C943E000C943E000C943E000C943E0058
:100030000C943E000C943E000C943E000C943E0048
:100040000C943E000C943E000C943E000C943E0038
:100050000C943E000C943E000C943E000C943E0028
:100060000C943E000C943E0011241FBECFEFD8E04C
:10007000DEBFCDBF0E9440000C94A2000C94000093
:10008000569A84B5836884BD82E387BD85B5836055
:1000900085BD2FEF83ED90E3215080409040E1F744
:1000A00000C0000085B5887F826085BD2FEF83ED9D
:1000B00090E3215080409040E1F700C000002FEF16
:1000C00083ED90E3215080409040E1F700C00000B4
:1000D00085B5887F836085BD2FEF83ED90E3215048
:1000E00080409040E1F700C000002FEF83ED90E3E7
:1000F000215080409040E1F700C0000085B5887F26
:10010000846085BD2FEF83ED90E3215080409040C7
:10011000E1F700C000002FEF83ED90E32150804015
:100120009040E1F700C0000085B5887F856085BDFF
:100130002FEF83ED90E3215080409040E1F700C025
:080140000000A7CFF894FFCFE7
:00000001FF
