:100000000C9434000C943E000C943E000C943E0082
:100010000C943E000C943E000C943E000C943E0068
:100020000C943E000C943E000C943E000C943E0058
:100030000C943E000C943E000C943E000C943E0048
:100040000C943E000C943E000C943E000C943E0038
:100050000C943E000C943E000C943E000C943E0028
:100060000C943E000C943E0011241FBECFEFD8E04C
:10007000DEBFCDBF0E946B000C94B5000C94000055
:100080009C01F999FECF32BD21BD60BDFA9AF99A63
:1000900008959C01F999FECF32BD21BDF89A80B533
:1000A00008951092C50087E68093C40088E180938C
:1000B000C10086E08093C20008958091C00087FF50
:1000C000FCCF8091C60008959091C00095FFFCCFB1
:1000D0008093C6000895CDB7DEB76E970FB6F8943B
:1000E000DEBF0FBECDBF0E94510000E010E0EE2445
:1000F000E394F12C0E945D008A3019F00D31110556
:1001000051F5E1E0F0E0EC0FFD1FE00FF11F108270
:10011000CE0101965C016701E00EF11ECE14DF04F2
:1001200061F48FE39CE90197F1F700C000000E94A1
:100130005D0000E010E08A30E3CFF50111915F012E
:10014000812F0E946400612FC6010E944000FFEFD2
:10015000CF1ADF0AE3CFE1E0F0E0EC0FFD1FE00F84
:0E016000F11F80830F5F1F4FC5CFF894FFCFB4
:00000001FF
