:100000000C9434000C943E000C943E000C943E0082
:100010000C943E000C943E000C943E000C943E0068
:100020000C943E000C943E000C943E000C943E0058
:100030000C943E000C943E000C943E000C943E0048
:100040000C943E000C943E000C943E000C943E0038
:100050000C943E000C943E000C943E000C943E0028
:100060000C943E000C943E0011241FBECFEFD8E04C
:10007000DEBFCDBF0E946B000C9484000C94000086
:100080009C01F999FECF32BD21BD60BDFA9AF99A63
:1000900008959C01F999FECF32BD21BDF89A80B533
:1000A00008951092C50087E68093C40088E180938C
:1000B000C10086E08093C20008958091C00087FF50
:1000C000FCCF8091C60008959091C00095FFFCCFB1
:1000D0008093C60008950E945100C1E0D0E0CE0197
:1000E0000E9449008A3019F0C431D10549F48AE0F0
:1000F0000E946400C431D10591F780E090E008953A
:0C0100000E9464002196EBCFF894FFCF22
:00000001FF
