:100000000C9434000C943E000C943E000C943E0082
:100010000C943E000C943E000C943E000C943E0068
:100020000C943E000C943E000C943E000C943E0058
:100030000C943E000C943E000C943E000C943E0048
:100040000C943E000C943E000C943E000C943E0038
:100050000C943E000C943E000C943E000C943E0028
:100060000C943E000C943E0011241FBECFEFD8E04C
:10007000DEBFCDBF0E946B000C947D000C9400008D
:100080009C01F999FECF32BD21BD60BDFA9AF99A63
:1000900008959C01F999FECF32BD21BDF89A80B533
:1000A00008951092C50087E68093C40088E180938C
:1000B000C10086E08093C20008958091C00087FF50
:1000C000FCCF8091C60008959091C00095FFFCCFB1
:1000D0008093C60008950E9451000AE010E0C80114
:1000E0000E944900C82F0E946400CA3019F00F5FB7
:0E00F0001F4FF5CF80E090E00895F894FFCF09
:00000001FF
