:100000000C9434000C943E000C943E000C943E0082
:100010000C943E000C943E000C943E000C943E0068
:100020000C943E000C943E000C943E000C943E0058
:100030000C943E000C943E000C943E000C943E0048
:100040000C943E000C943E000C943E000C943E0038
:100050000C943E000C943E000C943E000C943E0028
:100060000C943E000C943E0011241FBECFEFD8E04C
:10007000DEBFCDBF0E946C000C947A000C9400008F
:1000800039988AB18FEF8AB9EAE7F0E08081876812
:100090008083ECE7F0E08081816680830895809121
:1000A0007A00806480937A0080917A0084FFFCCF8C
:1000B00080917A00806180937A008091780020910D
:1000C000790094E0299F9001112482958695869568
:1000D0008370822B8BB908950E9440000E944F00CC
:1000E0002FEF83E294EF215080409040E1F700C071
:0800F0000000F4CFF894FFCFEB
:00000001FF
