:100000000C9434000C943E000C943E000C943E0082
:100010000C943E000C943E000C943E000C943E0068
:100020000C943E000C943E000C943E000C943E0058
:100030000C943E000C943E000C943E000C943E0048
:100040000C943E000C943E000C943E000C943E0038
:100050000C943E000C943E000C943E000C943E0028
:100060000C943E000C943E0011241FBECFEFD8E04C
:10007000DEBFCDBF0E9463000C9471000C940000A1
:1000800039988AB18FEF8AB9EAE7F0E0108280816F
:1000900087688083ECE7F0E0108280818162808352
:1000A000089580917A00806480937A0080917A002C
:1000B00084FFFCCF8091790087FD03C08FEF8BB95F
:1000C00008951BB808950E9440000E9451002FEF30
:1000D00083ED90E3215080409040E1F700C00000A4
:0600E000F4CFF894FFCFFD
:00000001FF
