:100000000C9434000C943E000C943E000C943E0082
:100010000C943E000C943E000C943E000C943E0068
:100020000C943E000C943E000C943E000C943E0058
:100030000C943E000C9440000C943E000C943E0046
:100040000C943E000C943E000C943E000C943E0038
:100050000C943E000C943E000C943E000C943E0028
:100060000C943E000C943E0011241FBECFEFD8E04C
:10007000DEBFCDBF0E945B000C94BD000C9400005D
:100080001F921FB61F9211248F939F9385B190E208
:10009000892785B98CED9BE090938500809384003F
:1000A0001092800084E0809381009F918F911F9037
:1000B0001FBE1F9018958FEF84B98CED9BE0909335
:1000C0008500809384001092800084E080938100FA
:1000D00081E080936F00789461E070E023E030E08D
:1000E00045B1CB01022E01C0880F0A94EAF7942F84
:1000F000982B95B94FEF51EEE4E041505040E0406D
:10010000E1F700C0000095B18095892385B94FEFD4
:1001100051EE84E0415050408040E1F700C00000C3
:100120002150310921153105D9F622E030E045B1E1
:10013000CB01022E01C0880F0A94EAF7942F982B66
:1001400095B9EFEF41EE54E0E15040405040E1F707
:1001500000C0000095B18095892385B98FEF91EE9D
:10016000E4E081509040E040E1F700C000002F5FE4
:0E0170003F4F25303105D9F6B1CFF894FFCFBF
:00000001FF
