:100000000C9434000C943E000C943E000C943E0082
:100010000C943E000C943E000C943E000C943E0068
:100020000C943E000C943E000C943E000C943E0058
:100030000C943E000C943E000C943E000C943E0048
:100040000C943E000C943E000C943E000C943E0038
:100050000C943E000C943E000C943E000C943E0028
:100060000C943E000C943E0011241FBECFEFD8E04C
:10007000DEBFCDBF0E944C000C945E000C940000CB
:1000800084E686BD14BC85E085BDA89BFECF14BC6C
:1000900015BC81E085BB0895259A2D9AC2E3D0E076
:1000A0000E94400021972097D9F72D98C2E3D0E015
:1000B0000E94400021972097D9F7EFCFF894FFCF07
:00000001FF
