:100000000C9434000C9446000C9446000C9446006A
:100010000C9446000C9446000C9446000C94460048
:100020000C9446000C9446000C9446000C94460038
:100030000C9446000C9469000C9446000C94460005
:100040000C9448000C9446000C9446000C94460016
:100050000C9446000C9446000C9446000C94460008
:100060000C9446000C94460011241FBECFEFD8E03C
:10007000DEBFCDBF21E0A0E0B1E001C01D92A43001
:10008000B207E1F70E948E000C94AD000C940000C2
:100090001F921FB61F9211248F939F93809102018C
:1000A0009091030101969093030180930201499777
:1000B00044F085B190E2892785B91092030110922E
:1000C000020183E886BD9F918F911F901FBE1F90F4
:1000D00018951F921FB61F9211248F939F938091A2
:1000E000000190910101019690930101809300011C
:1000F000059744F085B190E1892785B910920101F7
:100100001092000186E997EE909385008093840019
:100110009F918F911F901FBE1F9018958FEF84B9EC
:1001200083E886BD86E997EE9093850080938400EE
:1001300080916E00816080936E0080916F0081607D
:1001400080936F0014BC84E085BD10928000809382
:0E015000810078942D9A2C9AFFCFF894FFCF5F
:00000001FF
