:100000000C9434000C943E000C943E000C943E0082
:100010000C943E000C943E000C943E000C943E0068
:100020000C943E000C943E000C943E000C943E0058
:100030000C943E000C944D000C943E000C943E0039
:100040000C943E000C943E000C943E000C943E0038
:100050000C943E000C943E000C943E000C943E0028
:100060000C943E000C943E0011241FBECFEFD8E04C
:10007000DEBFCDBF0E9460000C94C3000C94000052
:1000800080E597ED90938500809384001092800026
:1000900084E0809381007894FFCF8F938FB78F9304
:1000A0009F9385B190E2892785B98CED9BE0909371
:1000B0008500809384009F918F918FBF8F911895B9
:1000C0008FEF84B98CED9BE0909385008093840042
:1000D0001092800084E080938100789461E070E069
:1000E00050E223E030E045B1CB01022E01C0880F81
:1000F0000A94EAF7942F982B95B94FEFE1EEF4E0CC
:100100004150E040F040E1F700C0000095B180951B
:10011000892385B94FEF81EE94E0415080409040B3
:10012000E1F700C000002150310921153105D9F651
:1001300085B1852785B922E030E045B1CB01022E9B
:1001400001C0880F0A94EAF7942F982B95B9EFEF26
:10015000F1EE44E0E150F0404040E1F700C0000023
:1001600095B18095892385B98FEF91EEE4E08150B8
:100170009040E040E1F700C000002F5F3F4F253086
:0A0180003105D9F6AECFF894FFCF99
:00000001FF
