:100000000C9434000C943E000C943E000C943E0082
:100010000C943E000C943E000C943E000C943E0068
:100020000C943E000C943E000C943E000C943E0058
:100030000C943E000C943E000C943E000C943E0048
:100040000C943E000C943E000C943E000C943E0038
:100050000C943E000C943E000C943E000C943E0028
:100060000C943E000C943E0011241FBECFEFD8E04C
:10007000DEBFCDBF0E9454000C949A000C94000087
:100080008CED9BE09093850080938400109280001B
:1000900084E080938100B09BFECF1092800010928C
:1000A000810081E086BB08958FEF84B901E010E004
:1000B00020E2F22E95E0C92ED12C85B1E8010C2C5E
:1000C00001C0CC0F0A94EAF78C2B85B985B18F2536
:1000D00085B90E94400085B1C095C823C5B985B1D6
:1000E0008F2585B90E94400081E0C81AD10828F701
:1000F000CC24C394D12C85B1E8010C2C01C0CC0FC9
:100100000A94EAF78C2B85B985B18F2585B90E94B1
:10011000400085B1C095C823C5B985B18F2585B983
:100120000E9440008FEFC81AD80A95E0C916D10482
:0801300011F7C0CFF894FFCFD6
:00000001FF
