:100000000C9434000C943E000C943E000C943E0082
:100010000C943E000C943E000C943E000C943E0068
:100020000C943E000C943E000C943E000C943E0058
:100030000C943E000C943E000C943E000C943E0048
:100040000C943E000C943E000C943E000C943E0038
:100050000C943E000C943E000C943E000C943E0028
:100060000C943E000C943E0011241FBECFEFD8E04C
:10007000DEBFCDBF0E945A000C9461000C940000BA
:100080001092C50087E68093C40088E18093C10088
:1000900086E08093C20008959091C00095FFFCCF48
:1000A0008093C60008958091C00087FFFCCF8091A7
:1000B000C60008950E9440000E9453000E944C0018
:0600C000FBCFF894FFCF16
:00000001FF
