:100000000C9434000C943E000C943E000C943E0082
:100010000C943E000C943E000C943E000C943E0068
:100020000C943E000C943E000C943E000C943E0058
:100030000C943E000C943E000C943E000C943E0048
:100040000C943E000C943E000C943E000C943E0038
:100050000C943E000C943E000C943E000C943E0028
:100060000C943E000C943E0011241FBECFEFD8E04C
:10007000DEBFCDBF0E945A000C94D5000C94000046
:100080001092C50087E68093C40088E18093C10088
:1000900086E08093C20008959091C00095FFFCCF48
:1000A0008093C60008958091C00087FFFCCF8091A7
:1000B000C6000895CDB7DEB7C456D1090FB6F8947F
:1000C000DEBF0FBECDBF0E9440008AE1E82EF12CBA
:1000D000CE0101966C015C0100E010E00E9453002B
:1000E0008A3071F498012C0D3D1D860120173107CF
:1000F00069F4C016D10659F58AE00E944C00E8CF99
:100100000F5F1F4FF50181935F01E8CFF8018081F8
:100110009FEB980F9A3170F48E53082E000C990BB8
:10012000B7010E94AD0091E4890FF80180830F5F51
:100130001F4FDCCF9FE9980F9A31C8F78E55082ED4
:10014000000C990BB7010E94AD0091E6EDCFF601CE
:1001500081916F010E944C00CCCF97FB072E16F4C3
:10016000009407D077FD09D00E94C10007FC05D09C
:100170003EF4909581959F4F0895709561957F4FBE
:100180000895AA1BBB1B51E107C0AA1FBB1FA617DE
:10019000B70710F0A61BB70B881F991F5A95A9F730
:0E01A00080959095BC01CD010895F894FFCF95
:00000001FF
