:100000000C9434000C9451000C9451000C94510049
:100010000C9451000C9451000C9451000C9451001C
:100020000C9451000C9451000C9451000C9451000C
:100030000C9451000C9451000C9451000C945100FC
:100040000C9453000C9451000C9451000C945100EA
:100050000C9451000C9451000C9451000C945100DC
:100060000C9451000C94510011241FBECFEFD8E026
:10007000DEBFCDBF11E0A0E0B1E0E4E6F1E002C0F8
:1000800005900D92A430B107D9F721E0A4E0B1E0CA
:1000900001C01D92A630B207E1F70E94A2000C94A5
:1000A000B0000C9400000F920FB60F921F92112413
:1000B0002F933F938F939F9380910401909105011B
:1000C000019690930501809304018436910521F5F2
:1000D00081E090E00090020102C0880F991F0A940D
:1000E000E2F785B920910001309101018091020170
:1000F0009091030121153105C1F001969093030100
:1001000080930201059721F41092010110920001E1
:1001100010920501109204019F918F913F912F91B0
:100120001F900F900FBE0F901895019790930301A9
:10013000809302018130910559F7909301018093DA
:100140000001E6CF83E886BD8FEF84B914BC84E05C
:1001500085BD80916E00816080936E007894FFCFA2
:04016000F894FFCF41
:040164000100010095
:00000001FF
