:100000000C9434000C943E000C943E000C943E0082
:100010000C943E000C943E000C943E000C943E0068
:100020000C943E000C943E000C943E000C943E0058
:100030000C943E000C943E000C943E000C943E0048
:100040000C943E000C943E000C943E000C943E0038
:100050000C943E000C943E000C943E000C943E0028
:100060000C943E000C943E0011241FBECFEFD8E04C
:10007000DEBFCDBF0E9440000C94A3000C94000092
:10008000569A84B5836884BD82E387BD85B5826056
:1000900085BD2FEF43ED50E3215040405040E1F744
:1000A00000C0000032E023E094E085E035BD6FEF52
:1000B00043ED50E3615040405040E1F700C0000084
:1000C0006FEF43ED50E3615040405040E1F700C016
:1000D000000025BD6FEF43ED50E3615040405040BC
:1000E000E1F700C000006FEF43ED50E36150404086
:1000F0005040E1F700C0000095BD6FEF43ED50E3C5
:10010000615040405040E1F700C000006FEF43ED08
:1001100050E3615040405040E1F700C0000085BD11
:100120006FEF43ED50E3615040405040E1F700C0B5
:1001300000006FEF43ED50E3615040405040E1F765
:0A01400000C00000B3CFF894FFCF19
:00000001FF
