:100000000C9434000C943E000C943E000C943E0082
:100010000C943E000C943E000C943E000C943E0068
:100020000C943E000C943E000C943E000C943E0058
:100030000C943E000C9440000C943E000C943E0046
:100040000C943E000C943E000C943E000C943E0038
:100050000C943E000C943E000C943E000C943E0028
:100060000C943E000C943E0011241FBECFEFD8E04C
:10007000DEBFCDBF0E9452000C9466000C940000BD
:100080008F938FB78F939F9385B1809585B98EEEAF
:1000900095E890938500809384009F918F918FBF06
:1000A0008F9118958FEF84B98EEE95E89093850027
:1000B000809384001092800085E08093810080917D
:1000C0006F00816080936F007894FFCFF894FFCF2A
:00000001FF
